:020000040800F2
:10000000000A002029020008350200083702000813
:10001000390200083B0200083D0200080000000011
:100020000000000000000000000000003F02000887
:10003000410200080000000043020008C10F000850
:1000400059130008250C0008411000088D0D000808
:10005000DD050008790D00080105000815050008F8
:100060001F0500082905000833050008D50300080E
:10007000DF030008E9030008F3030008FD0300089C
:100080000704000811040008E30200088F030008B9
:10009000710300087B030008850300083D05000884
:1000A0004B100008691000085F1000085510000888
:1000B000731000087D100008871000087B0B0008F3
:1000C000710B00088F0B0008850B0008430E000819
:1000D0004D0E0008D9110008E3110008ED110008C9
:1000E0000B050008830D0008F30B0008AF10000893
:1000F000CD100008C3100008B91000081B04000848
:10010000F1050008390E000891100008570E00088C
:10011000C5110008CF1100089B100008A5100008A9
:10012000250400082F0400083904000843040008CF
:100130004D040008ED040008F7040008B7030008A8
:1001400099030008A3030008AD030008E90B0008A9
:1001500057040008610400086B040008F711000848
:10016000A30B0008990B0008070C0008FD0B000802
:100170001B0C0008110C0008CB030008C103000889
:10018000910A0008E705000800F002F800F03CF8CA
:100190000AA090E8000C82448344AAF10107DA45E2
:1001A00001D100F031F8AFF2090EBAE80F0013F0F8
:1001B000010F18BFFB1A43F0010318470418000091
:1001C00024180000103A24BF78C878C1FAD8520722
:1001D00024BF30C830C144BF04680C6070470000C1
:1001E0000023002400250026103A28BF78C1FBD840
:1001F000520728BF30C148BF0B6070471FB501F0E0
:10020000D9FB1FBD10B510BD00F035F81146FFF742
:10021000F5FF01F03BFA00F053F803B4FFF7F2FFEB
:1002200003BC00F057F800000A4880470A4880479E
:100230000A480047FEE7FEE7FEE7FEE7FEE7FEE7C7
:10024000FEE7FEE7FEE7FEE705480649064A074BDC
:1002500070470000D90F00089108000889010008C4
:1002600000040020000A00200006002000060020F4
:10027000704770477047754600F028F8AE46050095
:100280006946534620F00700854618B020B5FFF7B1
:10029000DBFFBDE820404FF000064FF000074FF0B5
:1002A00000084FF0000B21F00701AC46ACE8C00994
:1002B000ACE8C009ACE8C009ACE8C0098D4670479D
:1002C0000446AFF300802046FFF7A7FF00487047C1
:1002D0009C03002001491820ABBEFEE72600020067
:1002E000704710B5122000F06BFA10BD70B50646CD
:1002F000002400BF12E01B4850F8240000EB8000EF
:10030000194901EB8000406806EB8601164A02EBB2
:1003100081014968884200D904E0641C1148006DDD
:10032000A042E8DA00BF0F48056D07E00D4850F81D
:1003300025100246681C42F820106D1EA542F5DA11
:10034000084840F82460006D401C064908650846CE
:10035000006D30B900BF0121044800F0CBFE00BFA2
:1003600000BF70BD48030020B80100200014004009
:1003700010B5142000F024FA10BD10B5152000F0BF
:100380001FFA10BD10B5162000F01AFA10BD10B5F6
:10039000132000F015FA10BD10B5402000F010FA3F
:1003A00010BD10B5412000F00BFA10BD10B5422071
:1003B00000F006FA10BD10B53F2000F001FA10BDA4
:1003C00010B54F2000F0FCF910BD10B54E2000F024
:1003D000F7F910BD10B50B2000F0F2F910BD10B503
:1003E0000C2000F0EDF910BD10B50D2000F0E8F97B
:1003F00010BD10B50E2000F0E3F910BD10B50F20B0
:1004000000F0DEF910BD10B5102000F0D9F910BDD4
:1004100010B5112000F0D4F910BD10B52F2000F058
:10042000CFF910BD10B5382000F0CAF910BD10B5D5
:10043000392000F0C5F910BD10B53A2000F0C0F920
:1004400010BD10B53B2000F0BBF910BD10B53C202D
:1004500000F0B6F910BD10B5442000F0B1F910BDA0
:1004600010B5452000F0ACF910BD10B5462000F0E5
:10047000A7F910BD2DE9F0410646194850F826703D
:1004800007EB8700174901EB8005344606E0144965
:10049000601C51F8200041F82400641C1048006DD5
:1004A000A042F4DC0E48006D401E0D490865286925
:1004B00030B12869401C68603846FFF717FF02E03A
:1004C0004FF0FF3028600648006D401C30B900BF77
:1004D0000021054800F00EFE00BF00BFBDE8F0811E
:1004E00048030020B80100200014004010B53D2052
:1004F00000F066F910BD10B53E2000F061F910BDA6
:1005000010B5062000F05CF910BD10B5282000F0F1
:1005100057F910BD10B5072000F052F910BD10B505
:10052000082000F04DF910BD10B5092000F048F981
:1005300010BD10B50A2000F043F910BD10B517200A
:1005400000F03EF910BD0000002123498279002A05
:100550003AD00A46126803689A430B461A600A1D8D
:10056000126803689A430B1D1A60027911440A68E5
:1005700003681A430A60184A0832126803689A43EB
:10058000154B08331A601A1D126803689A43124B00
:100590000C331A604279102A0ED11A1F12680368B0
:1005A0001A430D4B08331A601A1D126803681A4368
:1005B000094B0C331A600DE00749427911440A686F
:1005C00003681A430A6005E0027911440A68036867
:1005D0009A430A6070470000003C014010B50420B7
:1005E00000F0EEF810BD10B5512000F0E9F810BD94
:1005F00010B5302000F0E4F810BDF0B50A46002137
:100600000023002400BF3DE0012505FA01F3156831
:1006100005EA03049C4234D105684F000326BE401E
:10062000B543056015794E00B54006683543056051
:100630001579012D02D01579022D16D185684F004C
:100640000326BE40B543856055794E00B5408668A7
:1006500035438560456801268E40B5434560456851
:1006600096798E40B6B235434560C5684F00032683
:10067000BE40B543C560D5794E00B540C668354328
:10068000C560491C1029BFD3F0BDF0B5002300247C
:100690004D07ED0E02FA05F3CE1000F1200555F8D6
:1006A00026504E07F70E0F26BE40B543CF1000F17F
:1006B000200646F82750CE1000F1200555F82650A8
:1006C00045EA0304CE1000F1200545F82640F0BDB0
:1006D0000246002013690B400BB1012000E000200E
:1006E00070470AB1018300E04183704770B504464A
:1006F0000D4629462046FFF7EBFF70BD2DE9FF4769
:1007000006460D461446304600F09EFE8146012105
:10071000484600F08DFA204600F094FF8DF80C005A
:10072000C4F340108DF80E000295204600F07EFFC5
:100730008DF80F0002208DF80D0002A93046FFF75A
:100740005CFF04F4807028B904F0400010B904F094
:10075000800020B30121880300F08AFA284600F0C7
:10076000C3FEC7B2304600F013FF00F0FF08394661
:10077000404600F075FB4FF4A06000F017FA0095BA
:1007800001208DF8060000208DF80400204600F0BE
:1007900049FE8DF805006846FFF7D6FE00BFBDE8AC
:1007A000FF8770B505460E4614460CB1012000E0E7
:1007B0000020024631462846FFF793FF70BD000037
:1007C00070B504465B2C06D2034850F82450034809
:1007D000854200D0A84770BD4C000020E10700080A
:1007E0007047000010B5014648B200F01F03012217
:1007F0009A40034B440943F8242000BF10BD000079
:1008000080E100E0014648B200F01F0301229A4057
:1008100043099B0003F1E023C3F8002100BF7047A8
:1008200070B54FF4A06000F0C1F9002418E0114940
:10083000204600F025F82046FFF7D4FF60B20F21D4
:10084000002807DA0A07160E0B4A00F00F031B1FD9
:10085000D65403E00A07130E084A135400BF641C61
:100860005B2CE4D304480830056825F07F4505601B
:1008700070BD0000E107000818ED00E000E400E0B2
:100880005B2802D2014A42F8201070474C00002039
:1008900010B5FFF7C5FF00F001F810BD10B500243A
:1008A00007E04FF0FF3004EB8401064A42F82100D4
:1008B000641C142CF5DB4FF0FF300349086500F091
:1008C0002DF910BDB8010020480300202DE9F043A8
:1008D00087B00646884614461D46DDF838905548D0
:1008E000864225D10121084600F0A2F902208DF8A8
:1008F000180000208DF81A004FF4C0600590002009
:100900008DF81B0002208DF8190005A94A48FFF751
:1009100074FE072209214848FFF7B7FE07220A2183
:100920004548FFF7B2FE0121102000F0A1F94FE089
:100930004248864224D10121084600F079F902207C
:100940008DF8180000208DF81A000C20059000206A
:100950008DF81B0002208DF8190005A93648FFF715
:100960004CFE072202213448FFF78FFE07220321A5
:100970003148FFF78AFE0121480400F069F927E0B9
:100980002F48864224D10121022000F051F9022093
:100990008DF8180000208DF81A004FF44060059083
:1009A00000208DF81B0002208DF8190005A92548AC
:1009B000FFF723FE07220A212248FFF766FE0722DF
:1009C0000B212048FFF761FE0121880400F040F967
:1009D000082D00D114B1072D02D10CB1002707E07A
:1009E000082D00D114B9092D02D10CB94FF480574C
:1009F000CDF80480ADF808701FFA89F0ADF80A0050
:100A0000A0B2ADF80C000C20ADF80E000020ADF83F
:100A1000100001A9304600F031FC012240F22551BE
:100A2000304600F006FC0121304600F0E9FB07B03B
:100A3000BDE8F08300100140000002400044004087
:100A400000480040000402402DE9F04180460D4678
:100A500016460027002415E00027295D404600F0D7
:100A600077FC02E0012000F039FE8021404600F0D2
:100A7000D3FB18B9781C0746FF28F3DBFF2F00DBF8
:100A800002E0641CB442E7DB00BF2046BDE8F08111
:100A900010B55020FFF794FE10BD000070B5012185
:100AA0001B4800F033FB012830D1002426E0194810
:100AB00050F8245005EB8500174901EB8000406891
:100AC000401E05EB8501144A02EB8101486005EBED
:100AD0008500114601EB8000406870B905EB850088
:100AE00001EB8000866805EB850102EB8101C86897
:100AF000B0472046FFF7BEFC641E641C0548006D2D
:100B0000A042D4DA0121024800F0F1FA70BD0000E1
:100B10000014004048030020B80100200EB5012158
:100B2000202000F095F810493720FFF7A9FE372064
:100B3000FFF768FE0020ADF802004FF47A700190D4
:100B40005320ADF800000020ADF8080069460748C2
:100B500000F0F6FA01221146044800F0E8FA0121FB
:100B6000024800F0B8FA0EBD9D0A000800140040CB
:100B700010B52020FFF724FE10BD10B51F20FFF791
:100B80001FFE10BD10B52220FFF71AFE10BD10B5D4
:100B90002120FFF715FE10BD10B54920FFF710FE0C
:100BA00010BD10B54820FFF70BFE10BD02490143F0
:100BB000024A1160704700000000FA050CED00E0E9
:100BC00010B5002807DA0A07140E054A00F00F03D3
:100BD0001B1FD45403E00A07130E024A135410BD1E
:100BE00018ED00E000E400E010B54320FFF7E8FD59
:100BF00010BD10B52A20FFF7E3FD10BD10B54B2046
:100C0000FFF7DEFD10BD10B54A20FFF7D9FD10BD7E
:100C100010B54D20FFF7D4FD10BD10B54C20FFF7E7
:100C2000CFFD10BD10B50120FFF7CAFD10BD0000BB
:100C300029B1064A12680243044B1A6004E0034AD1
:100C400012688243014B1A6070470000303802403E
:100C500029B1064A12680243044B1A6004E0034AB1
:100C600012688243014B1A6070470000403802400E
:100C700029B1064A12680243044B1A6004E0034A91
:100C800012688243014B1A607047000044380240EA
:100C9000F0B5002100220024022500260223324F55
:100CA0003F6807F00C0121B1042905D0082937D18C
:100CB00005E02E4F076036E02D4F076033E02A4FE6
:100CC0003F1F3F68C7F38056274F3F1F3F6807F01D
:100CD0003F036EB1264FB7FBF3F7DFF88CC0ACF1E2
:100CE000040CDCF800C0CCF3881C07FB0CF40CE00F
:100CF0001E4FB7FBF3F7DFF870C0ACF1040CDCF863
:100D000000C0CCF3881C07FB0CF4174F3F1F3F6853
:100D1000C7F301477F1C7D00B4FBF5F7076002E0D5
:100D2000124F076000BF00BF0F4F3F6807F0F00190
:100D30000909104F7A5C0768D74047600A4F3F683F
:100D400007F4E051890A0B4F7A5C4768D740876007
:100D5000054F3F6807F46041490B064F7A5C4768CE
:100D6000D740C760F0BD0000083802400024F400FE
:100D700000127A000000002010B50520FFF720FDCA
:100D800010BD10B52920FFF71BFD10BD10B50320C5
:100D9000FFF716FD10BD000070B5002441E00220F1
:100DA0002249088000BF00F035FB38B91F48018890
:100DB0000088401C1D4A10800029F4D11E2000F03C
:100DC000D5FD00F027FB08B1012500E00025022039
:100DD0001649088000BF00F01DFB38B11348018898
:100DE0000088401C114A10800029F4D10F48008867
:100DF00001280AD1002241020D48FFF7D2FC01224E
:100E000091020B48FFF7CDFC0DE00A480078400640
:100E1000000E084908700846007828430870601CD6
:100E2000C4B2082CBBDB00BF70BD0000380000203E
:100E3000001402404400002010B53120FFF7C0FC30
:100E400010BD10B52320FFF7BBFC10BD10B524204A
:100E5000FFF7B6FC10BD10B53320FFF7B1FC10BD95
:100E600030B500228B071C0F0F2303FA04F20B4B43
:100E70008C1053F824309343084C8D1044F82530DF
:100E800023468C1053F824308C07240F00FA04F406
:100E90002343024C8D1044F8253030BD0838014002
:100EA0000CB50020019000903448006840F4803078
:100EB0003249086000BF3148006800F400300090FB
:100EC0000198401C0190009818B90198B0F5A04F06
:100ED000F1D12A48006800F4003010B101200090E0
:100EE00001E0002000900098012846D123484030BE
:100EF000006840F080502149403108602048006877
:100F000040F440401E4908601C48083000681B49F6
:100F1000083108600846006840F400400860084650
:100F2000006840F4A05008601648091F0860081FB8
:100F3000006840F08070091F086000BF0F4800681B
:100F400000F000700028F9D040F205700E490860EA
:100F50000A480830006820F003000849083108609A
:100F60000846006840F00200086000BF03480830EF
:100F7000006800F00C000828F8D10CBD00380240D1
:100F80000070004008544007003C024010B5044681
:100F9000601EB0F1807F01D3012010BD601E4FF0B4
:100FA000E02148610F214FF0FF30FFF709FE0020DC
:100FB0004FF0E0218861072008610020EDE7000084
:100FC0000448006820B103480068401E01490860D9
:100FD000704700001400002010B51548006840F468
:100FE0007000134908601348006840F0010011497F
:100FF000086000200F49083108600E4800680E495B
:1010000008400C4908600D48091D0860081F006869
:1010100020F48020091F0860002006490C31086078
:10102000FFF73EFF4FF0006001498039086010BDB6
:1010300088ED00E000380240FFFFF6FE103000248B
:1010400010B50220FFF7BCFB10BD10B51820FFF74C
:10105000B7FB10BD10B51B20FFF7B2FB10BD10B5DC
:101060001A20FFF7ADFB10BD10B51920FFF7A8FB44
:1010700010BD10B51C20FFF7A3FB10BD10B51D203F
:10108000FFF79EFB10BD10B51E20FFF799FB10BDAA
:1010900010B53220FFF794FB10BD10B53620FFF7D6
:1010A0008FFB10BD10B53720FFF78AFB10BD10B5C0
:1010B0002B20FFF785FB10BD10B52E20FFF780FB1E
:1010C00010BD10B52D20FFF77BFB10BD10B52C20F7
:1010D000FFF776FB10BD21B1028842F0800202804A
:1010E00004E002884FF67F731A4002807047CA43BB
:1010F0000282704721B1028842F00102028004E0BE
:1011000002884FF6FE731A400280704730B50246DF
:10111000002000230024158A05EA0103958905EAC9
:10112000010413B10CB1012000E0002030BD1AB160
:1011300083890B43838102E083898B4383817047DA
:1011400000220288184B98420ED0184B98420BD0C0
:10115000B0F1804F08D0164B984205D0154B9842FD
:1011600002D0154B984204D14FF68F731A404B882A
:101170001A43124B984207D0114B984204D04FF6B5
:10118000FF431A400B891A4302804B68C3620B88E5
:101190000385054B984202D0044B984201D18B7ACB
:1011A0000386012383827047000001400004014050
:1011B0000004004000080040000C00400010004007
:1011C0000014004010B53420FFF7FAFA10BD10B536
:1011D0003520FFF7F5FA10BD10B52520FFF7F0FA1E
:1011E00010BD10B52620FFF7EBFA10BD10B5272073
:1011F000FFF7E6FA10BD10B54720FFF7E1FA10BD82
:1012000021B1828942F40052828104E082894DF644
:10121000FF731A408281704702460020B1F5007FBB
:1012200000D100BF13880B400BB1012000E000206B
:101230007047F0B50346002400260025002040F644
:101240006A17B94200D100BF1846C1F3421401F039
:101250001F06012707FA06F5012C01D10C3004E026
:10126000022C01D1103000E014301AB107682F436E
:10127000076002E00768AF430760F0BD2DE9FF4754
:1012800005460E460024A14600BFA046B08900B125
:1012900000BF2C8A24F44054F08804432C82AC898B
:1012A00041F20C608443B088318908437189084356
:1012B0000443AC81AC8A24F44074B0890443AC820A
:1012C0006846FFF7E5FC2048854202D01F4885426A
:1012D00002D1DDF80C9001E0DDF80890A88900F457
:1012E000004040B109EBC90000EB0910316849002A
:1012F000B0FBF1F707E009EBC90000EB091031681A
:101300008900B0FBF1F76420B7FBF0F0040120097D
:10131000642101FB1078A88900F4004040B132201C
:1013200000EBC800B0FBF1F000F00700044308E058
:10133000322000EB08106421B0FBF1F000F00F0048
:1013400004432C81BDE8FF870010014000140140D8
:10135000C1F308028280704710B50020FFF730FA11
:1013600010BD000010B504462CB1102280210548A4
:10137000FFF7C4F904E0012280210248FFF7BEF91B
:1013800010BD0000000402401E480078642190FB5C
:10139000F1F030301C4908701A4800780A2190FB9F
:1013A000F1F090FBF1F201FB120030301649487069
:1013B000144800780A2190FBF1F201FB1200303052
:1013C0001149887011480078642190FBF1F03030A9
:1013D0000F4908700D4800780A2190FBF1F090FB4E
:1013E000F1F201FB120030300949487007480078DB
:1013F0000A2190FBF1F201FB1200303004498870A1
:10140000704700003A000020450000203C0000200A
:101410004800002010B580210148FFF767F910BD92
:10142000000402400146002001F480720AB110203D
:1014300008E001F040020AB1082003E001F0800258
:1014400002B10C2070470000014600201B4A914267
:1014500001D1012030E01A4A914201D102202BE053
:10146000184A914201D1042026E0174A914201D145
:10147000082021E0154A914201D110201CE0144AB5
:10148000914201D1202017E0124A914201D140201F
:1014900012E0114A914201D180200DE00F4A9142A1
:1014A00001D1881508E00E4A914201D1481503E0A8
:1014B0000C4A914200D1081570470000000002401C
:1014C0000004024000080240000C024000100240EC
:1014D0000014024000180240001C0240002002409C
:1014E000002402400028024001466F20B1F5807FB1
:1014F0003BD012DC102930D008DC012925D002298C
:1015000025D0042925D008293FD124E0202926D040
:10151000402926D0802938D125E0B1F5805F2CD034
:1015200009DCB1F5007F22D0B1F5806F21D0B1F593
:10153000006F2AD11FE0B1F5005F20D0B1F5804FD8
:101540001FD0B1F5004F20D11DE000201EE001208A
:101550001CE002201AE0032018E0042016E0052019
:1015600014E0062012E0072010E008200EE0092019
:101570000CE00A200AE00B2008E00C2006E00D2019
:1015800004E00E2002E00F2000E000BF00BF704723
:10159000014600201A4A914200D130E0194A914296
:1015A00001D101202BE0184A914201D1022026E00E
:1015B000164A914201D1032021E0154A914201D1FE
:1015C00004201CE0134A914201D1052017E0124A81
:1015D000914201D1062012E0104A914201D1072028
:1015E0000DE00F4A914201D1082008E00D4A9142D6
:1015F00001D1092003E00C4A914200D10A20704732
:10160000000002400004024000080240000C0240BA
:10161000001002400014024000180240001C02406A
:101620000020024000240240002802400146002021
:1016300001F002020AB1012003E001F0040202B14C
:10164000022070470146022001F0010272B901F048
:1016500002025AB901F0040242B901F480722AB9B7
:1016600001F0400212B901F080020AB100200BE043
:1016700001F008020AB1032006E001F0200212B9CD
:1016800001F0100202B1012070470000FFF700F9DD
:10169000102251011048FFF731F8102291010E4835
:1016A000FFF72CF8012251020B48FFF77AF80122CC
:1016B00091020948FFF775F8102211010648FFF75B
:1016C0001DF800F043F905E000F02CF84FF47A70B3
:1016D00000F004F8F8E700000014024070B504467A
:1016E0000E4804600E4800684FF47A71B0FBF1F5C3
:1016F0002846FFF74BFC0021481EFFF761FA00BFA8
:10170000064800680028FBD14FF0E020006920F077
:1017100001004FF0E021086170BD000014000020BE
:101720001C00002010B50120FFF71CFE012000F076
:10173000CDF8002000F0CAF81420FFF7CFFF0120F9
:1017400000F0C4F8282000F011F90020FFF70AFE8D
:10175000FFF760FE002876D102203B49088000BFD9
:10176000FFF758FE38B9384801880088401C364ACF
:1017700010800029F4D102203349088000BFFFF710
:1017800049FE38B1304801880088401C2E4A10803C
:101790000029F4D1FFF700FB2C4800782C49087091
:1017A000FFF7FAFA294800782A490870FFF7F4FA97
:1017B0002648007828490870FFF7EEFA2348007899
:1017C00026490870FFF7E8FA204800782449087095
:1017D0000120FFF7C7FD012000F078F81C480078D1
:1017E0001C49097808441C49097808441B490978B0
:1017F0000844C4B21A480078844224D114480078BE
:101800001849087013480078174908701248007882
:10181000164908701148007815490870104800787A
:1018200014490870FFF7B0FD00F05AF800F026F8F0
:10183000012251021048FEF7B4FF00224FF48061EC
:101840000D48FEF7AEFF10BD380000204400002018
:1018500041000020420000203F0000204000002006
:10186000430000203A0000203B0000203C00002004
:101870003D0000203E0000200014024010B50A2266
:1018800009A10C48FFF7E0F803220B490948FFF7CC
:10189000DBF80B2209A10748FFF7D6F803220A4913
:1018A0000448FFF7D1F810BD5468697320697320AC
:1018B0005248000000100140450000205468697340
:1018C0002069732054454D004800002010B504469F
:1018D000224680210148FEF764FF10BD000402404B
:1018E00010B5134800780A2190FBF1F090FBF1F25B
:1018F00001FB1200092809DA0E48007890FBF1F08C
:1019000090FBF1F201FB1200032805DB012211021A
:101910000948FEF746FF0AE0092208A10A48FFF736
:1019200093F800224FF480710348FEF73AFF10BD90
:101930003A0000203C000020001402404E4F572087
:101940004953204F4B0000000010014008B5002013
:10195000082302464FF4165100900348FEF7B6FFE5
:101960002520FEF74FFF08BD0010014070B504466A
:101970000D4804600D4800680D49B0FBF1F528469C
:10198000FFF704FB0121881EFFF71AF900BF064884
:1019900000680028FBD14FF0E020006920F0010032
:1019A0004FF0E021086170BD140000201C000020F1
:1019B00040420F004FF04070E1EE100A7047000007
:1019C000E0190008000000204C000000C4010008DD
:1019D0002C1A00084C000020B4090000E0010008A7
:1019E00000000000010203040102030406070809C5
:1019F000000000000000000000000000007A030A60
:101A000000000000000000000102030406070809AE
:101A100000000000000000000000000000000000C6
:0C1A2000000000000000000000000000BA
:040000050800018965
:00000001FF
